{
  "_format": "hh-sol-artifact-1",
  "contractName": "Token",
  "sourceName": "contracts/token.sol",
  "abi": [
    {
      "inputs": [],
      "stateMutability": "nonpayable",
      "type": "constructor"
    },
    {
      "anonymous": false,
      "inputs": [
        {
          "indexed": true,
          "internalType": "address",
          "name": "account",
          "type": "address"
        },
        {
          "indexed": true,
          "internalType": "address",
          "name": "operator",
          "type": "address"
        },
        {
          "indexed": false,
          "internalType": "bool",
          "name": "approved",
          "type": "bool"
        }
      ],
      "name": "ApprovalForAll",
      "type": "event"
    },
    {
      "anonymous": false,
      "inputs": [
        {
          "indexed": true,
          "internalType": "address",
          "name": "operator",
          "type": "address"
        },
        {
          "indexed": true,
          "internalType": "address",
          "name": "from",
          "type": "address"
        },
        {
          "indexed": true,
          "internalType": "address",
          "name": "to",
          "type": "address"
        },
        {
          "indexed": false,
          "internalType": "uint256[]",
          "name": "ids",
          "type": "uint256[]"
        },
        {
          "indexed": false,
          "internalType": "uint256[]",
          "name": "values",
          "type": "uint256[]"
        }
      ],
      "name": "TransferBatch",
      "type": "event"
    },
    {
      "anonymous": false,
      "inputs": [
        {
          "indexed": true,
          "internalType": "address",
          "name": "operator",
          "type": "address"
        },
        {
          "indexed": true,
          "internalType": "address",
          "name": "from",
          "type": "address"
        },
        {
          "indexed": true,
          "internalType": "address",
          "name": "to",
          "type": "address"
        },
        {
          "indexed": false,
          "internalType": "uint256",
          "name": "id",
          "type": "uint256"
        },
        {
          "indexed": false,
          "internalType": "uint256",
          "name": "value",
          "type": "uint256"
        }
      ],
      "name": "TransferSingle",
      "type": "event"
    },
    {
      "anonymous": false,
      "inputs": [
        {
          "indexed": false,
          "internalType": "string",
          "name": "value",
          "type": "string"
        },
        {
          "indexed": true,
          "internalType": "uint256",
          "name": "id",
          "type": "uint256"
        }
      ],
      "name": "URI",
      "type": "event"
    },
    {
      "inputs": [],
      "name": "CHANDLER",
      "outputs": [
        {
          "internalType": "uint256",
          "name": "",
          "type": "uint256"
        }
      ],
      "stateMutability": "view",
      "type": "function"
    },
    {
      "inputs": [],
      "name": "FRIENDS",
      "outputs": [
        {
          "internalType": "uint256",
          "name": "",
          "type": "uint256"
        }
      ],
      "stateMutability": "view",
      "type": "function"
    },
    {
      "inputs": [],
      "name": "JOEY",
      "outputs": [
        {
          "internalType": "uint256",
          "name": "",
          "type": "uint256"
        }
      ],
      "stateMutability": "view",
      "type": "function"
    },
    {
      "inputs": [],
      "name": "MONIKA",
      "outputs": [
        {
          "internalType": "uint256",
          "name": "",
          "type": "uint256"
        }
      ],
      "stateMutability": "view",
      "type": "function"
    },
    {
      "inputs": [],
      "name": "NARUTO",
      "outputs": [
        {
          "internalType": "uint256",
          "name": "",
          "type": "uint256"
        }
      ],
      "stateMutability": "view",
      "type": "function"
    },
    {
      "inputs": [],
      "name": "NEZUKO",
      "outputs": [
        {
          "internalType": "uint256",
          "name": "",
          "type": "uint256"
        }
      ],
      "stateMutability": "view",
      "type": "function"
    },
    {
      "inputs": [],
      "name": "PHOEBE",
      "outputs": [
        {
          "internalType": "uint256",
          "name": "",
          "type": "uint256"
        }
      ],
      "stateMutability": "view",
      "type": "function"
    },
    {
      "inputs": [],
      "name": "RACHEL",
      "outputs": [
        {
          "internalType": "uint256",
          "name": "",
          "type": "uint256"
        }
      ],
      "stateMutability": "view",
      "type": "function"
    },
    {
      "inputs": [],
      "name": "ROSS",
      "outputs": [
        {
          "internalType": "uint256",
          "name": "",
          "type": "uint256"
        }
      ],
      "stateMutability": "view",
      "type": "function"
    },
    {
      "inputs": [],
      "name": "TANJIRO",
      "outputs": [
        {
          "internalType": "uint256",
          "name": "",
          "type": "uint256"
        }
      ],
      "stateMutability": "view",
      "type": "function"
    },
    {
      "inputs": [
        {
          "internalType": "address",
          "name": "_account",
          "type": "address"
        },
        {
          "internalType": "uint256",
          "name": "_id",
          "type": "uint256"
        }
      ],
      "name": "_balanceOf",
      "outputs": [
        {
          "internalType": "uint256",
          "name": "",
          "type": "uint256"
        }
      ],
      "stateMutability": "view",
      "type": "function"
    },
    {
      "inputs": [
        {
          "internalType": "address",
          "name": "account",
          "type": "address"
        },
        {
          "internalType": "uint256",
          "name": "id",
          "type": "uint256"
        }
      ],
      "name": "balanceOf",
      "outputs": [
        {
          "internalType": "uint256",
          "name": "",
          "type": "uint256"
        }
      ],
      "stateMutability": "view",
      "type": "function"
    },
    {
      "inputs": [
        {
          "internalType": "address[]",
          "name": "accounts",
          "type": "address[]"
        },
        {
          "internalType": "uint256[]",
          "name": "ids",
          "type": "uint256[]"
        }
      ],
      "name": "balanceOfBatch",
      "outputs": [
        {
          "internalType": "uint256[]",
          "name": "",
          "type": "uint256[]"
        }
      ],
      "stateMutability": "view",
      "type": "function"
    },
    {
      "inputs": [
        {
          "internalType": "address",
          "name": "account",
          "type": "address"
        },
        {
          "internalType": "uint256",
          "name": "id",
          "type": "uint256"
        },
        {
          "internalType": "uint256",
          "name": "amount",
          "type": "uint256"
        }
      ],
      "name": "burn",
      "outputs": [
        {
          "internalType": "uint256",
          "name": "",
          "type": "uint256"
        }
      ],
      "stateMutability": "nonpayable",
      "type": "function"
    },
    {
      "inputs": [
        {
          "internalType": "uint256[]",
          "name": "_ids",
          "type": "uint256[]"
        },
        {
          "internalType": "uint256[]",
          "name": "_amounts",
          "type": "uint256[]"
        }
      ],
      "name": "burnBatch",
      "outputs": [],
      "stateMutability": "nonpayable",
      "type": "function"
    },
    {
      "inputs": [
        {
          "internalType": "address",
          "name": "account",
          "type": "address"
        },
        {
          "internalType": "address",
          "name": "operator",
          "type": "address"
        }
      ],
      "name": "isApprovedForAll",
      "outputs": [
        {
          "internalType": "bool",
          "name": "",
          "type": "bool"
        }
      ],
      "stateMutability": "view",
      "type": "function"
    },
    {
      "inputs": [
        {
          "internalType": "address",
          "name": "account",
          "type": "address"
        },
        {
          "internalType": "uint256",
          "name": "id",
          "type": "uint256"
        },
        {
          "internalType": "uint256",
          "name": "amount",
          "type": "uint256"
        }
      ],
      "name": "mint",
      "outputs": [],
      "stateMutability": "nonpayable",
      "type": "function"
    },
    {
      "inputs": [
        {
          "internalType": "address",
          "name": "to",
          "type": "address"
        },
        {
          "internalType": "uint256[]",
          "name": "ids",
          "type": "uint256[]"
        },
        {
          "internalType": "uint256[]",
          "name": "amounts",
          "type": "uint256[]"
        },
        {
          "internalType": "bytes",
          "name": "data",
          "type": "bytes"
        }
      ],
      "name": "mintBatch",
      "outputs": [],
      "stateMutability": "nonpayable",
      "type": "function"
    },
    {
      "inputs": [],
      "name": "owner",
      "outputs": [
        {
          "internalType": "address",
          "name": "",
          "type": "address"
        }
      ],
      "stateMutability": "view",
      "type": "function"
    },
    {
      "inputs": [
        {
          "internalType": "address",
          "name": "from",
          "type": "address"
        },
        {
          "internalType": "address",
          "name": "to",
          "type": "address"
        },
        {
          "internalType": "uint256[]",
          "name": "ids",
          "type": "uint256[]"
        },
        {
          "internalType": "uint256[]",
          "name": "amounts",
          "type": "uint256[]"
        },
        {
          "internalType": "bytes",
          "name": "data",
          "type": "bytes"
        }
      ],
      "name": "safeBatchTransferFrom",
      "outputs": [],
      "stateMutability": "nonpayable",
      "type": "function"
    },
    {
      "inputs": [
        {
          "internalType": "address",
          "name": "from",
          "type": "address"
        },
        {
          "internalType": "address",
          "name": "to",
          "type": "address"
        },
        {
          "internalType": "uint256",
          "name": "id",
          "type": "uint256"
        },
        {
          "internalType": "uint256",
          "name": "amount",
          "type": "uint256"
        },
        {
          "internalType": "bytes",
          "name": "data",
          "type": "bytes"
        }
      ],
      "name": "safeTransferFrom",
      "outputs": [],
      "stateMutability": "nonpayable",
      "type": "function"
    },
    {
      "inputs": [
        {
          "internalType": "address",
          "name": "operator",
          "type": "address"
        },
        {
          "internalType": "bool",
          "name": "approved",
          "type": "bool"
        }
      ],
      "name": "setApprovalForAll",
      "outputs": [],
      "stateMutability": "nonpayable",
      "type": "function"
    },
    {
      "inputs": [
        {
          "internalType": "bytes4",
          "name": "interfaceId",
          "type": "bytes4"
        }
      ],
      "name": "supportsInterface",
      "outputs": [
        {
          "internalType": "bool",
          "name": "",
          "type": "bool"
        }
      ],
      "stateMutability": "view",
      "type": "function"
    },
    {
      "inputs": [],
      "name": "totalSupply",
      "outputs": [
        {
          "internalType": "uint256",
          "name": "",
          "type": "uint256"
        }
      ],
      "stateMutability": "view",
      "type": "function"
    },
    {
      "inputs": [
        {
          "internalType": "uint256",
          "name": "_tokenId",
          "type": "uint256"
        }
      ],
      "name": "uri",
      "outputs": [
        {
          "internalType": "string",
          "name": "",
          "type": "string"
        }
      ],
      "stateMutability": "view",
      "type": "function"
    }
  ],
  "bytecode": "0x60806040523480156200001157600080fd5b506040518060800160405280605081526020016200485b605091396200003d816200024160201b60201c565b50612710600460003373ffffffffffffffffffffffffffffffffffffffff1673ffffffffffffffffffffffffffffffffffffffff1681526020019081526020016000208190555033600360006101000a81548173ffffffffffffffffffffffffffffffffffffffff021916908373ffffffffffffffffffffffffffffffffffffffff160217905550620000ea336000600a604051806020016040528060008152506200025660201b60201c565b6200010f3360016078604051806020016040528060008152506200025660201b60201c565b6200013433600260a0604051806020016040528060008152506200025660201b60201c565b6200015933600360be604051806020016040528060008152506200025660201b60201c565b6200017f336004610136604051806020016040528060008152506200025660201b60201c565b620001a533600561038e604051806020016040528060008152506200025660201b60201c565b620001ca33600660aa604051806020016040528060008152506200025660201b60201c565b620001f033600761032a604051806020016040528060008152506200025660201b60201c565b6200021533600860aa604051806020016040528060008152506200025660201b60201c565b6200023b3360096101fe604051806020016040528060008152506200025660201b60201c565b6200104c565b80600290816200025291906200096c565b5050565b600073ffffffffffffffffffffffffffffffffffffffff168473ffffffffffffffffffffffffffffffffffffffff1603620002c8576040517f08c379a0000000000000000000000000000000000000000000000000000000008152600401620002bf9062000ada565b60405180910390fd5b6000620002da6200043d60201b60201c565b90506000620002ef856200044560201b60201c565b9050600062000304856200044560201b60201c565b90506200031d83600089858589620004c660201b60201c565b8460008088815260200190815260200160002060008973ffffffffffffffffffffffffffffffffffffffff1673ffffffffffffffffffffffffffffffffffffffff16815260200190815260200160002060008282546200037e919062000b2b565b925050819055508673ffffffffffffffffffffffffffffffffffffffff16600073ffffffffffffffffffffffffffffffffffffffff168473ffffffffffffffffffffffffffffffffffffffff167fc3d58168c5ae7397731d063d5bbf3d657854427343f4c083240f7aacaa2d0f628989604051620003fe92919062000b77565b60405180910390a46200041d83600089858589620004ce60201b60201c565b6200043483600089898989620004d660201b60201c565b50505050505050565b600033905090565b60606000600167ffffffffffffffff811115620004675762000466620006fd565b5b604051908082528060200260200182016040528015620004965781602001602082028036833780820191505090505b5090508281600081518110620004b157620004b062000ba4565b5b60200260200101818152505080915050919050565b505050505050565b505050505050565b620005028473ffffffffffffffffffffffffffffffffffffffff16620006cf60201b62000ac21760201c565b15620006c7578373ffffffffffffffffffffffffffffffffffffffff1663f23a6e6187878686866040518663ffffffff1660e01b81526004016200054b95949392919062000cb2565b6020604051808303816000875af19250505080156200058a57506040513d601f19601f8201168201806040525081019062000587919062000d82565b60015b6200063b576200059962000dc1565b806308c379a003620005fc5750620005b062000e1c565b80620005bd5750620005fe565b806040517f08c379a0000000000000000000000000000000000000000000000000000000008152600401620005f3919062000ef8565b60405180910390fd5b505b6040517f08c379a0000000000000000000000000000000000000000000000000000000008152600401620006329062000f92565b60405180910390fd5b63f23a6e6160e01b7bffffffffffffffffffffffffffffffffffffffffffffffffffffffff1916817bffffffffffffffffffffffffffffffffffffffffffffffffffffffff191614620006c5576040517f08c379a0000000000000000000000000000000000000000000000000000000008152600401620006bc906200102a565b60405180910390fd5b505b505050505050565b6000808273ffffffffffffffffffffffffffffffffffffffff163b119050919050565b600081519050919050565b7f4e487b7100000000000000000000000000000000000000000000000000000000600052604160045260246000fd5b7f4e487b7100000000000000000000000000000000000000000000000000000000600052602260045260246000fd5b600060028204905060018216806200077457607f821691505b6020821081036200078a57620007896200072c565b5b50919050565b60008190508160005260206000209050919050565b60006020601f8301049050919050565b600082821b905092915050565b600060088302620007f47fffffffffffffffffffffffffffffffffffffffffffffffffffffffffffffffff82620007b5565b620008008683620007b5565b95508019841693508086168417925050509392505050565b6000819050919050565b6000819050919050565b60006200084d62000847620008418462000818565b62000822565b62000818565b9050919050565b6000819050919050565b62000869836200082c565b62000881620008788262000854565b848454620007c2565b825550505050565b600090565b6200089862000889565b620008a58184846200085e565b505050565b5b81811015620008cd57620008c16000826200088e565b600181019050620008ab565b5050565b601f8211156200091c57620008e68162000790565b620008f184620007a5565b8101602085101562000901578190505b620009196200091085620007a5565b830182620008aa565b50505b505050565b600082821c905092915050565b6000620009416000198460080262000921565b1980831691505092915050565b60006200095c83836200092e565b9150826002028217905092915050565b6200097782620006f2565b67ffffffffffffffff811115620009935762000992620006fd565b5b6200099f82546200075b565b620009ac828285620008d1565b600060209050601f831160018114620009e45760008415620009cf578287015190505b620009db85826200094e565b86555062000a4b565b601f198416620009f48662000790565b60005b8281101562000a1e57848901518255600182019150602085019450602081019050620009f7565b8683101562000a3e578489015162000a3a601f8916826200092e565b8355505b6001600288020188555050505b505050505050565b600082825260208201905092915050565b7f455243313135353a206d696e7420746f20746865207a65726f2061646472657360008201527f7300000000000000000000000000000000000000000000000000000000000000602082015250565b600062000ac260218362000a53565b915062000acf8262000a64565b604082019050919050565b6000602082019050818103600083015262000af58162000ab3565b9050919050565b7f4e487b7100000000000000000000000000000000000000000000000000000000600052601160045260246000fd5b600062000b388262000818565b915062000b458362000818565b925082820190508082111562000b605762000b5f62000afc565b5b92915050565b62000b718162000818565b82525050565b600060408201905062000b8e600083018562000b66565b62000b9d602083018462000b66565b9392505050565b7f4e487b7100000000000000000000000000000000000000000000000000000000600052603260045260246000fd5b600073ffffffffffffffffffffffffffffffffffffffff82169050919050565b600062000c008262000bd3565b9050919050565b62000c128162000bf3565b82525050565b600081519050919050565b600082825260208201905092915050565b60005b8381101562000c5457808201518184015260208101905062000c37565b60008484015250505050565b6000601f19601f8301169050919050565b600062000c7e8262000c18565b62000c8a818562000c23565b935062000c9c81856020860162000c34565b62000ca78162000c60565b840191505092915050565b600060a08201905062000cc9600083018862000c07565b62000cd8602083018762000c07565b62000ce7604083018662000b66565b62000cf6606083018562000b66565b818103608083015262000d0a818462000c71565b90509695505050505050565b6000604051905090565b600080fd5b60007fffffffff0000000000000000000000000000000000000000000000000000000082169050919050565b62000d5c8162000d25565b811462000d6857600080fd5b50565b60008151905062000d7c8162000d51565b92915050565b60006020828403121562000d9b5762000d9a62000d20565b5b600062000dab8482850162000d6b565b91505092915050565b60008160e01c9050919050565b600060033d111562000de35760046000803e62000de060005162000db4565b90505b90565b62000df18262000c60565b810181811067ffffffffffffffff8211171562000e135762000e12620006fd565b5b80604052505050565b600060443d1062000eb45762000e3162000d16565b60043d036004823e80513d602482011167ffffffffffffffff8211171562000e5b57505062000eb4565b808201805167ffffffffffffffff81111562000e7b575050505062000eb4565b80602083010160043d03850181111562000e9a57505050505062000eb4565b62000eab8260200185018662000de6565b82955050505050505b90565b600062000ec482620006f2565b62000ed0818562000a53565b935062000ee281856020860162000c34565b62000eed8162000c60565b840191505092915050565b6000602082019050818103600083015262000f14818462000eb7565b905092915050565b7f455243313135353a207472616e7366657220746f206e6f6e204552433131353560008201527f526563656976657220696d706c656d656e746572000000000000000000000000602082015250565b600062000f7a60348362000a53565b915062000f878262000f1c565b604082019050919050565b6000602082019050818103600083015262000fad8162000f6b565b9050919050565b7f455243313135353a204552433131353552656365697665722072656a6563746560008201527f6420746f6b656e73000000000000000000000000000000000000000000000000602082015250565b60006200101260288362000a53565b91506200101f8262000fb4565b604082019050919050565b60006020820190508181036000830152620010458162001003565b9050919050565b6137ff806200105c6000396000f3fe608060405234801561001057600080fd5b50600436106101725760003560e01c80637630b5bc116100de57806398463b7e11610097578063e985e9c511610071578063e985e9c51461043d578063f242432a1461046d578063f5298aca14610489578063f76f5841146104b957610172565b806398463b7e146103e5578063a22cb46514610403578063d06431e31461041f57610172565b80637630b5bc14610321578063787d2f301461033f57806383ca4b6f1461036f5780638da5cb5b1461038b57806391445f8b146103a9578063970640a4146103c757610172565b80632c9e44ad116101305780632c9e44ad1461025d5780632eb2c2d61461027b57806339d7f8f9146102975780634e1273f4146102b55780634fa5e443146102e5578063714ac14b1461030357610172565b8062fdd58e1461017757806301ffc9a7146101a75780630e89341c146101d7578063156e29f61461020757806318160ddd146102235780631f7fdffa14610241575b600080fd5b610191600480360381019061018c91906121af565b6104d7565b60405161019e91906121fe565b60405180910390f35b6101c160048036038101906101bc9190612271565b61059f565b6040516101ce91906122b9565b60405180910390f35b6101f160048036038101906101ec91906122d4565b610681565b6040516101fe9190612391565b60405180910390f35b610221600480360381019061021c91906123b3565b6106b2565b005b61022b6106d2565b60405161023891906121fe565b60405180910390f35b61025b60048036038101906102569190612603565b6106d8565b005b6102656106ea565b60405161027291906121fe565b60405180910390f35b610295600480360381019061029091906126be565b6106ef565b005b61029f610790565b6040516102ac91906121fe565b60405180910390f35b6102cf60048036038101906102ca9190612850565b610795565b6040516102dc9190612986565b60405180910390f35b6102ed6108ae565b6040516102fa91906121fe565b60405180910390f35b61030b6108b3565b60405161031891906121fe565b60405180910390f35b6103296108b8565b60405161033691906121fe565b60405180910390f35b610359600480360381019061035491906121af565b6108bd565b60405161036691906121fe565b60405180910390f35b610389600480360381019061038491906129a8565b6108d1565b005b6103936108e0565b6040516103a09190612a2f565b60405180910390f35b6103b1610906565b6040516103be91906121fe565b60405180910390f35b6103cf61090b565b6040516103dc91906121fe565b60405180910390f35b6103ed610910565b6040516103fa91906121fe565b60405180910390f35b61041d60048036038101906104189190612a76565b610915565b005b61042761092b565b60405161043491906121fe565b60405180910390f35b61045760048036038101906104529190612ab6565b610930565b60405161046491906122b9565b60405180910390f35b61048760048036038101906104829190612af6565b6109c4565b005b6104a3600480360381019061049e91906123b3565b610a65565b6040516104b091906121fe565b60405180910390f35b6104c1610abd565b6040516104ce91906121fe565b60405180910390f35b60008073ffffffffffffffffffffffffffffffffffffffff168373ffffffffffffffffffffffffffffffffffffffff1603610547576040517f08c379a000000000000000000000000000000000000000000000000000000000815260040161053e90612bff565b60405180910390fd5b60008083815260200190815260200160002060008473ffffffffffffffffffffffffffffffffffffffff1673ffffffffffffffffffffffffffffffffffffffff16815260200190815260200160002054905092915050565b60007fd9b67a26000000000000000000000000000000000000000000000000000000007bffffffffffffffffffffffffffffffffffffffffffffffffffffffff1916827bffffffffffffffffffffffffffffffffffffffffffffffffffffffff1916148061066a57507f0e89341c000000000000000000000000000000000000000000000000000000007bffffffffffffffffffffffffffffffffffffffffffffffffffffffff1916827bffffffffffffffffffffffffffffffffffffffffffffffffffffffff1916145b8061067a575061067982610ae5565b5b9050919050565b606061068c82610b4f565b60405160200161069c9190612d3f565b6040516020818303038152906040529050919050565b6106cd83838360405180602001604052806000815250610caf565b505050565b61271081565b6106e484848484610e5f565b50505050565b600481565b6106f761108b565b73ffffffffffffffffffffffffffffffffffffffff168573ffffffffffffffffffffffffffffffffffffffff16148061073d575061073c8561073761108b565b610930565b5b61077c576040517f08c379a000000000000000000000000000000000000000000000000000000000815260040161077390612dde565b60405180910390fd5b6107898585858585611093565b5050505050565b600381565b606081518351146107db576040517f08c379a00000000000000000000000000000000000000000000000000000000081526004016107d290612e70565b60405180910390fd5b6000835167ffffffffffffffff8111156107f8576107f761240b565b5b6040519080825280602002602001820160405280156108265781602001602082028036833780820191505090505b50905060005b84518110156108a35761087385828151811061084b5761084a612e90565b5b602002602001015185838151811061086657610865612e90565b5b60200260200101516104d7565b82828151811061088657610885612e90565b5b6020026020010181815250508061089c90612eee565b905061082c565b508091505092915050565b600881565b600981565b600681565b60006108c983836104d7565b905092915050565b6108dc3383836113b4565b5050565b600360009054906101000a900473ffffffffffffffffffffffffffffffffffffffff1681565b600181565b600281565b600081565b61092761092061108b565b8383611682565b5050565b600781565b6000600160008473ffffffffffffffffffffffffffffffffffffffff1673ffffffffffffffffffffffffffffffffffffffff16815260200190815260200160002060008373ffffffffffffffffffffffffffffffffffffffff1673ffffffffffffffffffffffffffffffffffffffff16815260200190815260200160002060009054906101000a900460ff16905092915050565b6109cc61108b565b73ffffffffffffffffffffffffffffffffffffffff168573ffffffffffffffffffffffffffffffffffffffff161480610a125750610a1185610a0c61108b565b610930565b5b610a51576040517f08c379a0000000000000000000000000000000000000000000000000000000008152600401610a4890612dde565b60405180910390fd5b610a5e85858585856117ee565b5050505050565b60008373ffffffffffffffffffffffffffffffffffffffff163373ffffffffffffffffffffffffffffffffffffffff1614610a9f57600080fd5b610aaa848484611a89565b610ab484846104d7565b90509392505050565b600581565b6000808273ffffffffffffffffffffffffffffffffffffffff163b119050919050565b60007f01ffc9a7000000000000000000000000000000000000000000000000000000007bffffffffffffffffffffffffffffffffffffffffffffffffffffffff1916827bffffffffffffffffffffffffffffffffffffffffffffffffffffffff1916149050919050565b606060008203610b96576040518060400160405280600181526020017f30000000000000000000000000000000000000000000000000000000000000008152509050610caa565b600082905060005b60008214610bc8578080610bb190612eee565b915050600a82610bc19190612f65565b9150610b9e565b60008167ffffffffffffffff811115610be457610be361240b565b5b6040519080825280601f01601f191660200182016040528015610c165781602001600182028036833780820191505090505b5090505b60008514610ca357600182610c2f9190612f96565b9150600a85610c3e9190612fca565b6030610c4a9190612ffb565b60f81b818381518110610c6057610c5f612e90565b5b60200101907effffffffffffffffffffffffffffffffffffffffffffffffffffffffffffff1916908160001a905350600a85610c9c9190612f65565b9450610c1a565b8093505050505b919050565b600073ffffffffffffffffffffffffffffffffffffffff168473ffffffffffffffffffffffffffffffffffffffff1603610d1e576040517f08c379a0000000000000000000000000000000000000000000000000000000008152600401610d15906130a1565b60405180910390fd5b6000610d2861108b565b90506000610d3585611ccf565b90506000610d4285611ccf565b9050610d5383600089858589611d49565b8460008088815260200190815260200160002060008973ffffffffffffffffffffffffffffffffffffffff1673ffffffffffffffffffffffffffffffffffffffff1681526020019081526020016000206000828254610db29190612ffb565b925050819055508673ffffffffffffffffffffffffffffffffffffffff16600073ffffffffffffffffffffffffffffffffffffffff168473ffffffffffffffffffffffffffffffffffffffff167fc3d58168c5ae7397731d063d5bbf3d657854427343f4c083240f7aacaa2d0f628989604051610e309291906130c1565b60405180910390a4610e4783600089858589611d51565b610e5683600089898989611d59565b50505050505050565b600073ffffffffffffffffffffffffffffffffffffffff168473ffffffffffffffffffffffffffffffffffffffff1603610ece576040517f08c379a0000000000000000000000000000000000000000000000000000000008152600401610ec5906130a1565b60405180910390fd5b8151835114610f12576040517f08c379a0000000000000000000000000000000000000000000000000000000008152600401610f099061315c565b60405180910390fd5b6000610f1c61108b565b9050610f2d81600087878787611d49565b60005b8451811015610fe657838181518110610f4c57610f4b612e90565b5b6020026020010151600080878481518110610f6a57610f69612e90565b5b6020026020010151815260200190815260200160002060008873ffffffffffffffffffffffffffffffffffffffff1673ffffffffffffffffffffffffffffffffffffffff1681526020019081526020016000206000828254610fcc9190612ffb565b925050819055508080610fde90612eee565b915050610f30565b508473ffffffffffffffffffffffffffffffffffffffff16600073ffffffffffffffffffffffffffffffffffffffff168273ffffffffffffffffffffffffffffffffffffffff167f4a39dc06d4c0dbc64b70af90fd698a233a518aa5d07e595d983b8c0526c8f7fb878760405161105e92919061317c565b60405180910390a461107581600087878787611d51565b61108481600087878787611f30565b5050505050565b600033905090565b81518351146110d7576040517f08c379a00000000000000000000000000000000000000000000000000000000081526004016110ce9061315c565b60405180910390fd5b600073ffffffffffffffffffffffffffffffffffffffff168473ffffffffffffffffffffffffffffffffffffffff1603611146576040517f08c379a000000000000000000000000000000000000000000000000000000000815260040161113d90613225565b60405180910390fd5b600061115061108b565b9050611160818787878787611d49565b60005b845181101561131157600085828151811061118157611180612e90565b5b6020026020010151905060008583815181106111a05761119f612e90565b5b60200260200101519050600080600084815260200190815260200160002060008b73ffffffffffffffffffffffffffffffffffffffff1673ffffffffffffffffffffffffffffffffffffffff16815260200190815260200160002054905081811015611241576040517f08c379a0000000000000000000000000000000000000000000000000000000008152600401611238906132b7565b60405180910390fd5b81810360008085815260200190815260200160002060008c73ffffffffffffffffffffffffffffffffffffffff1673ffffffffffffffffffffffffffffffffffffffff168152602001908152602001600020819055508160008085815260200190815260200160002060008b73ffffffffffffffffffffffffffffffffffffffff1673ffffffffffffffffffffffffffffffffffffffff16815260200190815260200160002060008282546112f69190612ffb565b925050819055505050508061130a90612eee565b9050611163565b508473ffffffffffffffffffffffffffffffffffffffff168673ffffffffffffffffffffffffffffffffffffffff168273ffffffffffffffffffffffffffffffffffffffff167f4a39dc06d4c0dbc64b70af90fd698a233a518aa5d07e595d983b8c0526c8f7fb878760405161138892919061317c565b60405180910390a461139e818787878787611d51565b6113ac818787878787611f30565b505050505050565b600073ffffffffffffffffffffffffffffffffffffffff168373ffffffffffffffffffffffffffffffffffffffff1603611423576040517f08c379a000000000000000000000000000000000000000000000000000000000815260040161141a90613349565b60405180910390fd5b8051825114611467576040517f08c379a000000000000000000000000000000000000000000000000000000000815260040161145e9061315c565b60405180910390fd5b600061147161108b565b905061149181856000868660405180602001604052806000815250611d49565b60005b83518110156115de5760008482815181106114b2576114b1612e90565b5b6020026020010151905060008483815181106114d1576114d0612e90565b5b60200260200101519050600080600084815260200190815260200160002060008973ffffffffffffffffffffffffffffffffffffffff1673ffffffffffffffffffffffffffffffffffffffff16815260200190815260200160002054905081811015611572576040517f08c379a0000000000000000000000000000000000000000000000000000000008152600401611569906133db565b60405180910390fd5b81810360008085815260200190815260200160002060008a73ffffffffffffffffffffffffffffffffffffffff1673ffffffffffffffffffffffffffffffffffffffff1681526020019081526020016000208190555050505080806115d690612eee565b915050611494565b50600073ffffffffffffffffffffffffffffffffffffffff168473ffffffffffffffffffffffffffffffffffffffff168273ffffffffffffffffffffffffffffffffffffffff167f4a39dc06d4c0dbc64b70af90fd698a233a518aa5d07e595d983b8c0526c8f7fb868660405161165692919061317c565b60405180910390a461167c81856000868660405180602001604052806000815250611d51565b50505050565b8173ffffffffffffffffffffffffffffffffffffffff168373ffffffffffffffffffffffffffffffffffffffff16036116f0576040517f08c379a00000000000000000000000000000000000000000000000000000000081526004016116e79061346d565b60405180910390fd5b80600160008573ffffffffffffffffffffffffffffffffffffffff1673ffffffffffffffffffffffffffffffffffffffff16815260200190815260200160002060008473ffffffffffffffffffffffffffffffffffffffff1673ffffffffffffffffffffffffffffffffffffffff16815260200190815260200160002060006101000a81548160ff0219169083151502179055508173ffffffffffffffffffffffffffffffffffffffff168373ffffffffffffffffffffffffffffffffffffffff167f17307eab39ab6107e8899845ad3d59bd9653f200f220920489ca2b5937696c31836040516117e191906122b9565b60405180910390a3505050565b600073ffffffffffffffffffffffffffffffffffffffff168473ffffffffffffffffffffffffffffffffffffffff160361185d576040517f08c379a000000000000000000000000000000000000000000000000000000000815260040161185490613225565b60405180910390fd5b600061186761108b565b9050600061187485611ccf565b9050600061188185611ccf565b9050611891838989858589611d49565b600080600088815260200190815260200160002060008a73ffffffffffffffffffffffffffffffffffffffff1673ffffffffffffffffffffffffffffffffffffffff16815260200190815260200160002054905085811015611928576040517f08c379a000000000000000000000000000000000000000000000000000000000815260040161191f906132b7565b60405180910390fd5b85810360008089815260200190815260200160002060008b73ffffffffffffffffffffffffffffffffffffffff1673ffffffffffffffffffffffffffffffffffffffff168152602001908152602001600020819055508560008089815260200190815260200160002060008a73ffffffffffffffffffffffffffffffffffffffff1673ffffffffffffffffffffffffffffffffffffffff16815260200190815260200160002060008282546119dd9190612ffb565b925050819055508773ffffffffffffffffffffffffffffffffffffffff168973ffffffffffffffffffffffffffffffffffffffff168573ffffffffffffffffffffffffffffffffffffffff167fc3d58168c5ae7397731d063d5bbf3d657854427343f4c083240f7aacaa2d0f628a8a604051611a5a9291906130c1565b60405180910390a4611a70848a8a86868a611d51565b611a7e848a8a8a8a8a611d59565b505050505050505050565b600073ffffffffffffffffffffffffffffffffffffffff168373ffffffffffffffffffffffffffffffffffffffff1603611af8576040517f08c379a0000000000000000000000000000000000000000000000000000000008152600401611aef90613349565b60405180910390fd5b6000611b0261108b565b90506000611b0f84611ccf565b90506000611b1c84611ccf565b9050611b3c83876000858560405180602001604052806000815250611d49565b600080600087815260200190815260200160002060008873ffffffffffffffffffffffffffffffffffffffff1673ffffffffffffffffffffffffffffffffffffffff16815260200190815260200160002054905084811015611bd3576040517f08c379a0000000000000000000000000000000000000000000000000000000008152600401611bca906133db565b60405180910390fd5b84810360008088815260200190815260200160002060008973ffffffffffffffffffffffffffffffffffffffff1673ffffffffffffffffffffffffffffffffffffffff16815260200190815260200160002081905550600073ffffffffffffffffffffffffffffffffffffffff168773ffffffffffffffffffffffffffffffffffffffff168573ffffffffffffffffffffffffffffffffffffffff167fc3d58168c5ae7397731d063d5bbf3d657854427343f4c083240f7aacaa2d0f628989604051611ca09291906130c1565b60405180910390a4611cc684886000868660405180602001604052806000815250611d51565b50505050505050565b60606000600167ffffffffffffffff811115611cee57611ced61240b565b5b604051908082528060200260200182016040528015611d1c5781602001602082028036833780820191505090505b5090508281600081518110611d3457611d33612e90565b5b60200260200101818152505080915050919050565b505050505050565b505050505050565b611d788473ffffffffffffffffffffffffffffffffffffffff16610ac2565b15611f28578373ffffffffffffffffffffffffffffffffffffffff1663f23a6e6187878686866040518663ffffffff1660e01b8152600401611dbe9594939291906134e2565b6020604051808303816000875af1925050508015611dfa57506040513d601f19601f82011682018060405250810190611df79190613551565b60015b611e9f57611e0661358b565b806308c379a003611e625750611e1a6135ad565b80611e255750611e64565b806040517f08c379a0000000000000000000000000000000000000000000000000000000008152600401611e599190612391565b60405180910390fd5b505b6040517f08c379a0000000000000000000000000000000000000000000000000000000008152600401611e96906136af565b60405180910390fd5b63f23a6e6160e01b7bffffffffffffffffffffffffffffffffffffffffffffffffffffffff1916817bffffffffffffffffffffffffffffffffffffffffffffffffffffffff191614611f26576040517f08c379a0000000000000000000000000000000000000000000000000000000008152600401611f1d90613741565b60405180910390fd5b505b505050505050565b611f4f8473ffffffffffffffffffffffffffffffffffffffff16610ac2565b156120ff578373ffffffffffffffffffffffffffffffffffffffff1663bc197c8187878686866040518663ffffffff1660e01b8152600401611f95959493929190613761565b6020604051808303816000875af1925050508015611fd157506040513d601f19601f82011682018060405250810190611fce9190613551565b60015b61207657611fdd61358b565b806308c379a0036120395750611ff16135ad565b80611ffc575061203b565b806040517f08c379a00000000000000000000000000000000000000000000000000000000081526004016120309190612391565b60405180910390fd5b505b6040517f08c379a000000000000000000000000000000000000000000000000000000000815260040161206d906136af565b60405180910390fd5b63bc197c8160e01b7bffffffffffffffffffffffffffffffffffffffffffffffffffffffff1916817bffffffffffffffffffffffffffffffffffffffffffffffffffffffff1916146120fd576040517f08c379a00000000000000000000000000000000000000000000000000000000081526004016120f490613741565b60405180910390fd5b505b505050505050565b6000604051905090565b600080fd5b600080fd5b600073ffffffffffffffffffffffffffffffffffffffff82169050919050565b60006121468261211b565b9050919050565b6121568161213b565b811461216157600080fd5b50565b6000813590506121738161214d565b92915050565b6000819050919050565b61218c81612179565b811461219757600080fd5b50565b6000813590506121a981612183565b92915050565b600080604083850312156121c6576121c5612111565b5b60006121d485828601612164565b92505060206121e58582860161219a565b9150509250929050565b6121f881612179565b82525050565b600060208201905061221360008301846121ef565b92915050565b60007fffffffff0000000000000000000000000000000000000000000000000000000082169050919050565b61224e81612219565b811461225957600080fd5b50565b60008135905061226b81612245565b92915050565b60006020828403121561228757612286612111565b5b60006122958482850161225c565b91505092915050565b60008115159050919050565b6122b38161229e565b82525050565b60006020820190506122ce60008301846122aa565b92915050565b6000602082840312156122ea576122e9612111565b5b60006122f88482850161219a565b91505092915050565b600081519050919050565b600082825260208201905092915050565b60005b8381101561233b578082015181840152602081019050612320565b60008484015250505050565b6000601f19601f8301169050919050565b600061236382612301565b61236d818561230c565b935061237d81856020860161231d565b61238681612347565b840191505092915050565b600060208201905081810360008301526123ab8184612358565b905092915050565b6000806000606084860312156123cc576123cb612111565b5b60006123da86828701612164565b93505060206123eb8682870161219a565b92505060406123fc8682870161219a565b9150509250925092565b600080fd5b7f4e487b7100000000000000000000000000000000000000000000000000000000600052604160045260246000fd5b61244382612347565b810181811067ffffffffffffffff821117156124625761246161240b565b5b80604052505050565b6000612475612107565b9050612481828261243a565b919050565b600067ffffffffffffffff8211156124a1576124a061240b565b5b602082029050602081019050919050565b600080fd5b60006124ca6124c584612486565b61246b565b905080838252602082019050602084028301858111156124ed576124ec6124b2565b5b835b818110156125165780612502888261219a565b8452602084019350506020810190506124ef565b5050509392505050565b600082601f83011261253557612534612406565b5b81356125458482602086016124b7565b91505092915050565b600080fd5b600067ffffffffffffffff82111561256e5761256d61240b565b5b61257782612347565b9050602081019050919050565b82818337600083830152505050565b60006125a66125a184612553565b61246b565b9050828152602081018484840111156125c2576125c161254e565b5b6125cd848285612584565b509392505050565b600082601f8301126125ea576125e9612406565b5b81356125fa848260208601612593565b91505092915050565b6000806000806080858703121561261d5761261c612111565b5b600061262b87828801612164565b945050602085013567ffffffffffffffff81111561264c5761264b612116565b5b61265887828801612520565b935050604085013567ffffffffffffffff81111561267957612678612116565b5b61268587828801612520565b925050606085013567ffffffffffffffff8111156126a6576126a5612116565b5b6126b2878288016125d5565b91505092959194509250565b600080600080600060a086880312156126da576126d9612111565b5b60006126e888828901612164565b95505060206126f988828901612164565b945050604086013567ffffffffffffffff81111561271a57612719612116565b5b61272688828901612520565b935050606086013567ffffffffffffffff81111561274757612746612116565b5b61275388828901612520565b925050608086013567ffffffffffffffff81111561277457612773612116565b5b612780888289016125d5565b9150509295509295909350565b600067ffffffffffffffff8211156127a8576127a761240b565b5b602082029050602081019050919050565b60006127cc6127c78461278d565b61246b565b905080838252602082019050602084028301858111156127ef576127ee6124b2565b5b835b8181101561281857806128048882612164565b8452602084019350506020810190506127f1565b5050509392505050565b600082601f83011261283757612836612406565b5b81356128478482602086016127b9565b91505092915050565b6000806040838503121561286757612866612111565b5b600083013567ffffffffffffffff81111561288557612884612116565b5b61289185828601612822565b925050602083013567ffffffffffffffff8111156128b2576128b1612116565b5b6128be85828601612520565b9150509250929050565b600081519050919050565b600082825260208201905092915050565b6000819050602082019050919050565b6128fd81612179565b82525050565b600061290f83836128f4565b60208301905092915050565b6000602082019050919050565b6000612933826128c8565b61293d81856128d3565b9350612948836128e4565b8060005b838110156129795781516129608882612903565b975061296b8361291b565b92505060018101905061294c565b5085935050505092915050565b600060208201905081810360008301526129a08184612928565b905092915050565b600080604083850312156129bf576129be612111565b5b600083013567ffffffffffffffff8111156129dd576129dc612116565b5b6129e985828601612520565b925050602083013567ffffffffffffffff811115612a0a57612a09612116565b5b612a1685828601612520565b9150509250929050565b612a298161213b565b82525050565b6000602082019050612a446000830184612a20565b92915050565b612a538161229e565b8114612a5e57600080fd5b50565b600081359050612a7081612a4a565b92915050565b60008060408385031215612a8d57612a8c612111565b5b6000612a9b85828601612164565b9250506020612aac85828601612a61565b9150509250929050565b60008060408385031215612acd57612acc612111565b5b6000612adb85828601612164565b9250506020612aec85828601612164565b9150509250929050565b600080600080600060a08688031215612b1257612b11612111565b5b6000612b2088828901612164565b9550506020612b3188828901612164565b9450506040612b428882890161219a565b9350506060612b538882890161219a565b925050608086013567ffffffffffffffff811115612b7457612b73612116565b5b612b80888289016125d5565b9150509295509295909350565b7f455243313135353a2061646472657373207a65726f206973206e6f742061207660008201527f616c6964206f776e657200000000000000000000000000000000000000000000602082015250565b6000612be9602a8361230c565b9150612bf482612b8d565b604082019050919050565b60006020820190508181036000830152612c1881612bdc565b9050919050565b600081905092915050565b7f68747470733a2f2f676174657761792e70696e6174612e636c6f75642f69706660008201527f732f516d6639346965326e526b4b394e796e614b667a507a374c66424471713860208201527f4e5870667561656435345039504a42772f000000000000000000000000000000604082015250565b6000612cac605183612c1f565b9150612cb782612c2a565b605182019050919050565b6000612ccd82612301565b612cd78185612c1f565b9350612ce781856020860161231d565b80840191505092915050565b7f2e6a736f6e000000000000000000000000000000000000000000000000000000600082015250565b6000612d29600583612c1f565b9150612d3482612cf3565b600582019050919050565b6000612d4a82612c9f565b9150612d568284612cc2565b9150612d6182612d1c565b915081905092915050565b7f455243313135353a2063616c6c6572206973206e6f7420746f6b656e206f776e60008201527f6572206e6f7220617070726f7665640000000000000000000000000000000000602082015250565b6000612dc8602f8361230c565b9150612dd382612d6c565b604082019050919050565b60006020820190508181036000830152612df781612dbb565b9050919050565b7f455243313135353a206163636f756e747320616e6420696473206c656e67746860008201527f206d69736d617463680000000000000000000000000000000000000000000000602082015250565b6000612e5a60298361230c565b9150612e6582612dfe565b604082019050919050565b60006020820190508181036000830152612e8981612e4d565b9050919050565b7f4e487b7100000000000000000000000000000000000000000000000000000000600052603260045260246000fd5b7f4e487b7100000000000000000000000000000000000000000000000000000000600052601160045260246000fd5b6000612ef982612179565b91507fffffffffffffffffffffffffffffffffffffffffffffffffffffffffffffffff8203612f2b57612f2a612ebf565b5b600182019050919050565b7f4e487b7100000000000000000000000000000000000000000000000000000000600052601260045260246000fd5b6000612f7082612179565b9150612f7b83612179565b925082612f8b57612f8a612f36565b5b828204905092915050565b6000612fa182612179565b9150612fac83612179565b9250828203905081811115612fc457612fc3612ebf565b5b92915050565b6000612fd582612179565b9150612fe083612179565b925082612ff057612fef612f36565b5b828206905092915050565b600061300682612179565b915061301183612179565b925082820190508082111561302957613028612ebf565b5b92915050565b7f455243313135353a206d696e7420746f20746865207a65726f2061646472657360008201527f7300000000000000000000000000000000000000000000000000000000000000602082015250565b600061308b60218361230c565b91506130968261302f565b604082019050919050565b600060208201905081810360008301526130ba8161307e565b9050919050565b60006040820190506130d660008301856121ef565b6130e360208301846121ef565b9392505050565b7f455243313135353a2069647320616e6420616d6f756e7473206c656e6774682060008201527f6d69736d61746368000000000000000000000000000000000000000000000000602082015250565b600061314660288361230c565b9150613151826130ea565b604082019050919050565b6000602082019050818103600083015261317581613139565b9050919050565b600060408201905081810360008301526131968185612928565b905081810360208301526131aa8184612928565b90509392505050565b7f455243313135353a207472616e7366657220746f20746865207a65726f20616460008201527f6472657373000000000000000000000000000000000000000000000000000000602082015250565b600061320f60258361230c565b915061321a826131b3565b604082019050919050565b6000602082019050818103600083015261323e81613202565b9050919050565b7f455243313135353a20696e73756666696369656e742062616c616e636520666f60008201527f72207472616e7366657200000000000000000000000000000000000000000000602082015250565b60006132a1602a8361230c565b91506132ac82613245565b604082019050919050565b600060208201905081810360008301526132d081613294565b9050919050565b7f455243313135353a206275726e2066726f6d20746865207a65726f206164647260008201527f6573730000000000000000000000000000000000000000000000000000000000602082015250565b600061333360238361230c565b915061333e826132d7565b604082019050919050565b6000602082019050818103600083015261336281613326565b9050919050565b7f455243313135353a206275726e20616d6f756e7420657863656564732062616c60008201527f616e636500000000000000000000000000000000000000000000000000000000602082015250565b60006133c560248361230c565b91506133d082613369565b604082019050919050565b600060208201905081810360008301526133f4816133b8565b9050919050565b7f455243313135353a2073657474696e6720617070726f76616c2073746174757360008201527f20666f722073656c660000000000000000000000000000000000000000000000602082015250565b600061345760298361230c565b9150613462826133fb565b604082019050919050565b600060208201905081810360008301526134868161344a565b9050919050565b600081519050919050565b600082825260208201905092915050565b60006134b48261348d565b6134be8185613498565b93506134ce81856020860161231d565b6134d781612347565b840191505092915050565b600060a0820190506134f76000830188612a20565b6135046020830187612a20565b61351160408301866121ef565b61351e60608301856121ef565b818103608083015261353081846134a9565b90509695505050505050565b60008151905061354b81612245565b92915050565b60006020828403121561356757613566612111565b5b60006135758482850161353c565b91505092915050565b60008160e01c9050919050565b600060033d11156135aa5760046000803e6135a760005161357e565b90505b90565b600060443d1061363a576135bf612107565b60043d036004823e80513d602482011167ffffffffffffffff821117156135e757505061363a565b808201805167ffffffffffffffff811115613605575050505061363a565b80602083010160043d03850181111561362257505050505061363a565b6136318260200185018661243a565b82955050505050505b90565b7f455243313135353a207472616e7366657220746f206e6f6e204552433131353560008201527f526563656976657220696d706c656d656e746572000000000000000000000000602082015250565b600061369960348361230c565b91506136a48261363d565b604082019050919050565b600060208201905081810360008301526136c88161368c565b9050919050565b7f455243313135353a204552433131353552656365697665722072656a6563746560008201527f6420746f6b656e73000000000000000000000000000000000000000000000000602082015250565b600061372b60288361230c565b9150613736826136cf565b604082019050919050565b6000602082019050818103600083015261375a8161371e565b9050919050565b600060a0820190506137766000830188612a20565b6137836020830187612a20565b81810360408301526137958186612928565b905081810360608301526137a98185612928565b905081810360808301526137bd81846134a9565b9050969550505050505056fea2646970667358221220db8ffa595358b5da7dabd59e0f64f8813d1741324fac4ff4839f2dd78479e9f064736f6c6343000811003368747470733a2f2f676174657761792e70696e6174612e636c6f75642f697066732f516d6639346965326e526b4b394e796e614b667a507a374c6642447171384e5870667561656435345039504a4277",
  "linkReferences": {},
  "deployedLinkReferences": {}
}